:1000000084C00000AAC00000A8C00000A6C0000074
:10001000A4C00000A2C00000A0C000009EC000005C
:100020009CC000000C94B65798C000000C94A265C8
:1000300094C0000092C0000090C000008EC000007C
:100040000C9463688AC000000C94A36F0C94CF6F6B
:1000500084C0000082C0000080C000007EC000009C
:100060000C94FE617AC00000084AD73B3BCE016E7B
:1000700084BCBFFDC12F3D6C74319ABD56833DDAFF
:100080003D00C77F11BED9E4BB4C3E916BAAAABE0E
:10009000000000803F05A84CCDB2D44EB93836A937
:1000A000020C50B9918688083CA6AAAA2ABE000074
:1000B00000803F0000000000240027002A0000000C
:1000C0000000250028002B00040404040404040498
:1000D00002020202020203030303030301020408F3
:1000E00010204080010204081020010204081020A2
:1000F00000000008000201000003040700000000E7
:1001000000000000F402C95F367011241FBECFEF5B
:10011000D8E0DEBFCDBF14E0A0E0B1E0ECE0F3EE4C
:1001200002C005900D92A033B107D9F726E1A0E3F4
:10013000B4E001C01D92AB3EB207E1F710E0C5E8A4
:10014000D0E004C02197FE010E945171C238D1074E
:10015000C9F70E9495580C94847152CFCF93DF93C6
:1001600000D000D000D0CDB7DEB769837A838B830F
:100170009C835E834D8389819A81AB81BC81892B6D
:100180008A2B8B2B21F589819A81880F991F880FE3
:10019000991F80509F4FFC0180818823C1F4898181
:1001A0009A81880F991F880F991F8E5F9E4FFC01BF
:1001B000808191810E94245D89819A81880F991F95
:1001C000880F991F80509F4F21E0FC012083898177
:1001D0009A81880F991F880F991F80509F4F2696EC
:1001E0000FB6F894DEBF0FBECDBFDF91CF9108955B
:1001F000CF93DF9300D000D000D0CDB7DEB79A8385
:1002000089834B835C836D837E8389819A81892B6B
:10021000F9F089819A81FC018181882341F480E889
:100220009AE1A6E0B0E08B839C83AD83BE83898195
:100230009A81FC01228133818B819C81AD81BE81B9
:10024000AC01BD01C9010E94405D80E090E002C0A8
:1002500088E090E026960FB6F894DEBF0FBECDBFC3
:10026000DF91CF910895CF92EF920F931F93CF9389
:10027000DF93CDB7DEB762970FB6F894DEBF0FBE3F
:10028000CDBF98878F837A8769875C874B870D8777
:100290001E872F87388BE98ACA8A8F819885892B98
:1002A00009F49DC08F819885FC01828193813D85F1
:1002B0002985432F622F0E94F95D19821A821B82C1
:1002C0001C828F819885FC01428153818F819885A2
:1002D000FC0182819381FC01808191810896FC015F
:1002E00020813181CA01F901099521E0892B09F4A6
:1002F00020E0222309F465C08F819885FC014281AA
:1003000053818F819885FC0182819381FC018081DA
:1003100091810896FC0120813181CA01F90109957A
:10032000892B79F029813A814B815C818D859E856D
:10033000AF85B889281739074A075B0710F481E0B1
:1003400001C080E0882309F447C08F819885FC01B3
:10035000428153818F819885FC0182819381FC01C8
:10036000808191810A96FC0120813181CA01F901C5
:1003700009959E838D838D819E81019659F48B858D
:100380009C8544E050E060E070E00E947D7188E070
:1003900090E027C089819A81AB81BC819C01AD012D
:1003A0002F5F3F4F4F4F5F4F29833A834B835C83CF
:1003B0009C018B859C85820F931F2D81FC012083DE
:1003C0009BCF8B859C8544E050E060E070E00E940C
:1003D0007D7188E090E005C080E090E002C088E098
:1003E00090E062960FB6F894DEBF0FBECDBFDF91EE
:1003F000CF911F910F91EF90CF900895CF92EF92F0
:100400000F931F93CF93DF93CDB7DEB72D970FB622
:10041000F894DEBF0FBECDBF9B838A837D836C8340
:100420005F834E83088719872A873B87EC86CD86B2
:100430008A819B81892B09F44FC019828A819B8113
:10044000DC0112968D919C912C81622F0E94105E8E
:100450008A819B81DC011296ED91FC918A819B81BE
:10046000DC0112968D919C91DC018D919C910296FC
:10047000DC012D913C91488559858E819F81BC017D
:10048000CF01F90109958C85882359F08A819B81D8
:10049000DC0112968D919C9160E00E942A5E898316
:1004A00009C08A819B81FC018281938161E00E9465
:1004B0002A5E89838981882319F480E090E00EC048
:1004C0008981823019F08981833019F484E090E0C9
:1004D00005C088E090E002C088E090E02D960FB65D
:1004E000F894DEBF0FBECDBFDF91CF911F910F916A
:1004F000EF90CF900895CF93DF9300D0CDB7DEB7C4
:100500009A83898300000F900F90DF91CF91089517
:10051000CF93DF9300D0CDB7DEB789836A8389811B
:10052000282F30E0C901880F991F820F931F805D2B
:100530009B4F2A81222F30E0B9010E946E66000095
:100540000F900F90DF91CF910895CF93DF9300D05C
:10055000CDB7DEB789836A838981282F30E0C9014E
:10056000880F991F820F931F805D9B4F2A81222F36
:1005700030E0B9010E941C6700000F900F90DF91DE
:10058000CF910895EF92FF920F931F93CF93DF9334
:1005900000D000D0CDB7DEB79A8389837C836B838C
:1005A00089819A810197A1F48B819C81019681F4C4
:1005B00080E394E003E010E07C0111234CF0C701DC
:1005C0000E943B6683E0E80EF11C01501109F5CF53
:1005D00000000F900F900F900F90DF91CF911F911F
:1005E0000F91FF90EF900895CF93DF93CDB7DEB7D3
:1005F0006FEF7FEF81E090E0C5DFDF91CF9108954D
:10060000CF93DF9300D000D000D0CDB7DEB79A8370
:1006100089834B835C836D837E838B819C81AD81D9
:10062000BE81E981FA8126E0AC01BD01CF010E94C3
:100630002B6C000026960FB6F894DEBF0FBECDBF20
:10064000DF91CF910895CF93DF9300D000D000D0F9
:10065000CDB7DEB79A8389834B835C836D837E83BA
:100660008B819C81AD81BE81AC01BD0189E395E0A8
:10067000C7DF000026960FB6F894DEBF0FBECDBFD1
:10068000DF91CF910895EF92FF920F931F93CF9335
:10069000DF93CDB7DEB728970FB6F894DEBF0FBE55
:1006A000CDBF6D837E838F83988719821A821B82C8
:1006B0001C820E94D468DC01CB0189839A83AB83BE
:1006C000BC830E94D4689B01AC0189819A81AB8173
:1006D000BC8179018A01E81AF90A0A0B1B0BD801BF
:1006E000C70161E02D813E814F8158852817390768
:1006F0004A075B0708F460E0662309F0E2CF0000D8
:1007000028960FB6F894DEBF0FBECDBFDF91CF9114
:100710001F910F91FF90EF900895EF92FF920F932A
:100720001F93CF93DF93CDB7DEB728970FB6F8941A
:10073000DEBF0FBECDBF6D837E838F839887198206
:100740001A821B821C820E940069DC01CB01898312
:100750009A83AB83BC830E9400699B01AC018981B1
:100760009A81AB81BC8179018A01E81AF90A0A0BE6
:100770001B0BD801C70161E02D813E814F81588557
:10078000281739074A075B0708F460E0662309F079
:10079000E2CF000028960FB6F894DEBF0FBECDBFA3
:1007A000DF91CF911F910F91FF90EF900895CF931C
:1007B000DF9300D0CDB7DEB79A8389838CE394E0D2
:1007C000FC01838121E0882309F020E089819A815E
:1007D0000196FC01208300000F900F90DF91CF91D4
:1007E0000895CF93DF93CDB7DEB78CE394E0FC019F
:1007F00023812F5FFC0123838CE394E0FC01838140
:10080000823020F08CE394E0FC0113820000DF9141
:10081000CF910895CF93DF93CDB7DEB728970FB66A
:10082000F894DEBF0FBECDBF98878F838F819885E8
:10083000FC0110A611A612A613A68F819885FC01B3
:1008400014A615A616A617A68F819885FC0110AAD6
:1008500011AA12AA13AA8F819885FC0114AA15AABD
:1008600016AA17AA8F819885FC0110AE11AE12AEA0
:1008700013AE8F819885FC0114AE15AE16AE17AE7F
:100880008F8198858E5B9F4FFC0110828F819885A8
:10089000FC0111821282138214822F81388580E03C
:1008A00090E0A0E8BFEBF90186839783A087B1872A
:1008B0008F8198859A8389838F8198850A969C83F6
:1008C0008B832F81388580E090E5A3ECB8E4F901B3
:1008D000858B968BA78BB08F8F819885FC011386B3
:1008E0001486158616868B819C81FC0116821582E2
:1008F0008F819885FC0112868F81988549969E8309
:100900008D832F81388580E090E5A3ECB8E4F90170
:1009100084A395A3A6A3B7A38F819885FC01128E0B
:10092000138E148E158E8D819E81FC011682158288
:100930008F819885FC01118E8F819885FC01108232
:1009400089819A8128960FB6F894DEBF0FBECDBF7D
:10095000DF91CF910895CF92EF920F931F93CF9392
:10096000DF9300D000D000D01F92CDB7DEB79F83B9
:100970008E831D828D818C838AE68B83CE010396C4
:1009800042E050E0BC01CE0101960E9474718E815C
:100990009F81FC0187859089C12CE12C02E010E049
:1009A00020E030E0AE014F5F5F4F68E670E026DD8B
:1009B0008D838D818823B9F08E819F818D5B9F4FC0
:1009C000FC018081882379F48E819F818E5B9F4F0B
:1009D000FC018081882339F42D818E819F818E5B7B
:1009E0009F4FFC01208363E070E080E090E04BDEED
:1009F00082E88D838D818C8387E38B83CE01039680
:100A000042E050E0BC01CE0101960E9474718E81DB
:100A10009F81FC0187859089C12CE12C02E010E0C8
:100A200020E030E0AE014F5F5F4F68E670E0E6DC4B
:100A30008D838D818823B9F08E819F818D5B9F4F3F
:100A4000FC018081882379F48E819F818E5B9F4F8A
:100A5000FC018081882339F42D818E819F818E5BFA
:100A60009F4FFC012083000027960FB6F894DEBF4D
:100A70000FBECDBFDF91CF911F910F91EF90CF901F
:100A80000895CF93DF93CDB7DEB72B970FB6F894C9
:100A9000DEBF0FBECDBF9F838E83798768875B875C
:100AA0004A871C821B8281E090E09A8389831D82A1
:100AB00031C089819A8101972E813F81820F931FD6
:100AC000FC018081882309F18B819C8101969C83A4
:100AD0008B838B819C8181509048880F991F28853A
:100AE0003985820F931F29813A81FC01318320834C
:100AF0008B819C8103971CF081E08D830BC08981E1
:100B00009A8101969A83898305C089819A81019689
:100B10009A8389838D81882329F489819A81019719
:100B200003973CF28B819C811816190614F01C82E5
:100B30001B828A859B852B813C81FC01318320832C
:100B400000002B960FB6F894DEBF0FBECDBFDF912D
:100B5000CF910895CF92DF92EF92FF920F931F9360
:100B6000CF93DF93CDB7DEB76E970FB6F894DEBFA5
:100B70000FBECDBF9E8F8D8F8D8D9E8D8D5B9F4FB8
:100B800021E0FC0120838D8D9E8D0A969C838B83B2
:100B90001092F6111092F7111092F8111092F911AB
:100BA0008091F6119091F711A091F811B091F9117F
:100BB00040E050E0BC01CD01D1DA9C018D8D9E8DCD
:100BC000FC01308B27872D8D3E8D80EA96E8A1E0D1
:100BD000B0E0F901818B928BA38BB48B8D8D9E8DB0
:100BE000FC0181899289A389B4898D839E83AF8317
:100BF000B8878B819C81FC01258136818D819E8106
:100C0000AF81B885AC01BD01C901F2DA80E8888FF7
:100C1000888D8E8B8BE68D8B9E012B5E3F4FCE0198
:100C2000439642E050E0B9010E9474718D8D9E8D13
:100C3000FC0187859089AE014D5E5F4FC12CE12C90
:100C400002E010E020E030E068E670E0D7DB898F5A
:100C5000898D8823B9F08D8D9E8D8D5B9F4FFC0112
:100C60008081882379F48D8D9E8D8E5B9F4FFC0152
:100C70008081882339F4298D8D8D9E8D8E5B9F4FC9
:100C8000FC01208361E070E080E090E0FCDC188EE5
:100C9000888D8E8B8BE68D8B9E012B5E3F4FCE0118
:100CA000439642E050E0B9010E9474718D8D9E8D93
:100CB000FC0187859089AE014D5E5F4FC12CE12C10
:100CC00002E010E020E030E068E670E097DB898F1A
:100CD000898D8823B9F08D8D9E8D8D5B9F4FFC0192
:100CE0008081882379F48D8D9E8D8E5B9F4FFC01D2
:100CF0008081882339F4298D8D8D9E8D8E5B9F4F49
:100D0000FC01208364E670E080E090E0BCDC85E7D5
:100D1000898F898D8F8B8D8D9E8DFC018785908924
:100D2000AE01495E5F4FC12CEE24E39401E010E078
:100D300020E030E068E670E061DB898F898D8823F0
:100D4000A9F48D8D9E8DFC0187859089AE01495E49
:100D50005F4FCC24C394E12C01E010E020E030E0B0
:100D600068E670E080DA8F89888F01C0188E898DDF
:100D70008823B9F08D8D9E8D8D5B9F4FFC01808106
:100D8000882379F48D8D9E8D8E5B9F4FFC01808131
:100D9000882339F4298D8D8D9E8D8E5B9F4FFC01AC
:100DA0002083888D813719F0888D833719F481E08D
:100DB000888F01C0188E288D8D8D9E8D805C9F4FF1
:100DC000FC0120838D8D9E8D805C9F4FFC01808176
:100DD000882309F447C5188E888D8E8B89E18D8B09
:100DE0009E012B5E3F4FCE01439642E050E0B90199
:100DF0000E9474718D8D9E8DFC0187859089AE0156
:100E00004D5E5F4FC12CE12C02E010E020E030E0AD
:100E100068E670E0F3DA898F898D8823B9F08D8DCB
:100E20009E8D8D5B9F4FFC018081882379F48D8D91
:100E30009E8D8E5B9F4FFC018081882339F4298D24
:100E40008D8D9E8D8E5B9F4FFC01208383E0888F6C
:100E5000888D8E8B8DE18D8B9E012B5E3F4FCE0159
:100E6000439642E050E0B9010E9474718D8D9E8DD1
:100E7000FC0187859089AE014D5E5F4FC12CE12C4E
:100E800002E010E020E030E068E670E0B7DA898F39
:100E9000898D8823B9F08D8D9E8D8D5B9F4FFC01D0
:100EA0008081882379F48D8D9E8D8E5B9F4FFC0110
:100EB0008081882339F4298D8D8D9E8D8E5B9F4F87
:100EC000FC0120838CE1898F898D8F8B8D8D9E8D88
:100ED000FC0187859089AE01495E5F4FC12CEE24ED
:100EE000E39401E010E020E030E068E670E086DAAC
:100EF000898F898D8823A9F48D8D9E8DFC0187852E
:100F00009089AE01495E5F4FCC24C394E12C01E08F
:100F100010E020E030E068E670E0A5D98F89888F86
:100F200001C0188E898D8823B9F08D8D9E8D8D5BC3
:100F30009F4FFC018081882379F48D8D9E8D8E5B7F
:100F40009F4FFC018081882339F4298D8D8D9E8DE2
:100F50008E5B9F4FFC012083888D877E8860888F01
:100F6000888D8E8B8CE18D8B9E012B5E3F4FCE0149
:100F7000439642E050E0B9010E9474718D8D9E8DC0
:100F8000FC0187859089AE014D5E5F4FC12CE12C3D
:100F900002E010E020E030E068E670E02FDA898FB0
:100FA000898D8823B9F08D8D9E8D8D5B9F4FFC01BF
:100FB0008081882379F48D8D9E8D8E5B9F4FFC01FF
:100FC0008081882339F4298D8D8D9E8D8E5B9F4F76
:100FD000FC0120838BE1898F898D8F8B8D8D9E8D78
:100FE000FC0187859089AE01495E5F4FC12CEE24DC
:100FF000E39401E010E020E030E068E670E0FED924
:10100000898F898D8823A9F48D8D9E8DFC0187851C
:101010009089AE01495E5F4FCC24C394E12C01E07E
:1010200010E020E030E068E670E01DD98F89888FFD
:1010300001C0188E898D8823B9F08D8D9E8D8D5BB2
:101040009F4FFC018081882379F48D8D9E8D8E5B6E
:101050009F4FFC018081882339F4298D8D8D9E8DD1
:101060008E5B9F4FFC012083888D877E888F888DC3
:101070008E8B8BE18D8B9E012B5E3F4FCE01439675
:1010800042E050E0B9010E9474718D8D9E8DFC018B
:1010900087859089AE014D5E5F4FC12CE12C02E047
:1010A00010E020E030E068E670E0A8D9898F898DF3
:1010B0008823B9F08D8D9E8D8D5B9F4FFC018081C3
:1010C000882379F48D8D9E8D8E5B9F4FFC018081EE
:1010D000882339F4298D8D8D9E8D8E5B9F4FFC0169
:1010E00020838AE1898F898D8F8B8D8D9E8DFC0168
:1010F00087859089AE01495E5F4FC12CEE24E39451
:1011000001E010E020E030E068E670E077D9898FF8
:10111000898D8823A9F48D8D9E8DFC01878590890A
:10112000AE01495E5F4FCC24C394E12C01E010E096
:1011300020E030E068E670E096D88F89888F01C0A3
:10114000188E898D8823B9F08D8D9E8D8D5B9F4F74
:10115000FC018081882379F48D8D9E8D8E5B9F4F5D
:10116000FC018081882339F4298D8D8D9E8D8E5BC5
:101170009F4FFC012083888D887F8360888F888DB6
:101180008E8B8AE18D8B9E012B5E3F4FCE01439665
:1011900042E050E0B9010E9474718D8D9E8DFC017A
:1011A00087859089AE014D5E5F4FC12CE12C02E036
:1011B00010E020E030E068E670E020D9898F898D6A
:1011C0008823B9F08D8D9E8D8D5B9F4FFC018081B2
:1011D000882379F48D8D9E8D8E5B9F4FFC018081DD
:1011E000882339F4298D8D8D9E8D8E5B9F4FFC0158
:1011F00020838D8D9E8DAFDB8D8D9E8D49969A8738
:1012000089871092F6111092F7111092F81110922E
:10121000F9118091F6119091F711A091F811B09108
:10122000F91140E050E0BC01CD010E94AE009C01EC
:101230008D8D9E8DFC01378F268F2D8D3E8D80EA02
:1012400096E8A1E0B0E0F90180A391A3A2A3B3A323
:101250008D8D9E8DFC0180A191A1A2A1B3A18D8352
:101260009E83AF83B88789859A85FC012581368165
:101270008D819E81AF81B885AC01BD01C9010E94FD
:10128000F800198E898D8F8B8D8D9E8DFC01868D3A
:10129000978DAE01495E5F4FC12CEE24E39401E0CF
:1012A00010E020E030E06CE070E0A8D8898F898DF4
:1012B0008823B1F48D8D9E8DFC01868D978DAE01B6
:1012C000495E5F4FCC24C394E12C01E010E020E0A4
:1012D00030E06CE070E00E9433018F89888F01C09C
:1012E000188E898D8823B9F08D8D9E8D8D5B9F4FD3
:1012F000FC018081882379F48D8D9E8D8E5B9F4FBC
:10130000FC018081882339F4298D8D8D9E8D8E5B23
:101310009F4FFC012083988D81E0983409F080E094
:10132000282F8D8D9E8D8F5B9F4FFC012083188A07
:10133000198A1A8A8D8D9E8D8F5B9F4FFC0180814B
:10134000882309F45BC1188E888D8E8B8AE08D8B83
:101350009E012B5E3F4FCE01439642E050E0B90123
:101360000E9474718D8D9E8DFC01868D978DAE01CE
:101370004D5E5F4FC12CE12C02E010E020E030E038
:101380006CE070E03BD8898F898D8823B9F08D8D12
:101390009E8D8D5B9F4FFC018081882379F48D8D1C
:1013A0009E8D8E5B9F4FFC018081882339F4298DAF
:1013B0008D8D9E8D8E5B9F4FFC01208361E070E0E0
:1013C00080E090E060D98FE0888F888D8E8B8AE0F6
:1013D0008D8B9E012B5E3F4FCE01439642E050E045
:1013E000B9010E9474718D8D9E8DFC01868D978D43
:1013F000AE014D5E5F4FC12CE12C02E010E020E019
:1014000030E06CE070E00E94FE01898F898D8823B6
:10141000B9F08D8D9E8D8D5B9F4FFC01808188235F
:1014200079F48D8D9E8D8E5B9F4FFC01808188238A
:1014300039F4298D8D8D9E8D8E5B9F4FFC0120830D
:1014400061E070E080E090E01ED980E1898F898DB5
:101450008F8B8D8D9E8DFC01868D978DAE01495EA3
:101460005F4FC12CEE24E39401E010E020E030E077
:101470006CE070E00E94FE01898F898D8823F1F471
:101480008D8D9E8DFC01868D978DAE01435F5F4FE4
:10149000CC24C394E12C03E010E020E030E06CE0C9
:1014A00070E00E9433019E01235F3F4FCE014096C2
:1014B00043E050E0B9010E94747103C0188A198A90
:1014C0001A8A898D8823B9F08D8D9E8D8D5B9F4FF3
:1014D000FC018081882379F48D8D9E8D8E5B9F4FDA
:1014E000FC018081882339F4298D8D8D9E8D8E5B42
:1014F0009F4FFC012083188E888D8E8B8AE08D8B08
:101500009E012B5E3F4FCE01439642E050E0B90171
:101510000E9474718D8D9E8DFC01868D978DAE011C
:101520004D5E5F4FC12CE12C02E010E020E030E086
:101530006CE070E00E94FE01898F898D8823B9F0EC
:101540008D8D9E8D8D5B9F4FFC018081882379F46A
:101550008D8D9E8D8E5B9F4FFC018081882339F499
:10156000298D8D8D9E8D8E5B9F4FFC01208364E6BF
:1015700070E080E090E0D1D886E1888F888D8E8BF6
:101580008AE08D8B9E012B5E3F4FCE01439642E059
:1015900050E0B9010E9474718D8D9E8DFC01868D85
:1015A000978DAE014D5E5F4FC12CE12C02E010E043
:1015B00020E030E06CE070E00E94FE01898F898DB0
:1015C0008823B9F08D8D9E8D8D5B9F4FFC018081AE
:1015D000882379F48D8D9E8D8E5B9F4FFC018081D9
:1015E000882339F4298D8D8D9E8D8E5B9F4FFC0154
:1015F000208364E670E080E090E08FD8988981E0F5
:10160000992309F080E08A8F998981E0992309F074
:1016100080E08B8F9A8981E0992309F080E08C8F9C
:101620009E01255F3F4FCE014A96A90166E972E10E
:1016300028DA8B859C85019799235CF08B859C85A6
:10164000880F991FAC0166E972E180E992E10E947E
:1016500074718B859C85892B21F08B859C85892BCA
:1016600049F410925612109257121092581210927A
:10167000591255C08091901290919112092E000C30
:10168000AA0BBB0BBC01CD010E946C5ADC01CB0143
:101690008093561290935712A0935812B0935912F8
:1016A00082E090E09A83898333C0C0905612D09034
:1016B0005712E0905812F090591289819A8101973F
:1016C000835A994F880F991F8A529A4FFC01808143
:1016D0009181092E000CAA0BBB0BBC01CD010E940D
:1016E0006C5ADC01CB019C01AD01C701B6010E941F
:1016F000F658DC01CB018093561290935712A093B9
:101700005812B093591289819A8101969A838983DC
:101710008B859C8529813A818217930734F68091C5
:10172000561290915712A0915812B091591220E080
:1017300030E040EC50E4BC01CD010E94CF59882339
:1017400009F490C08889882F90E0A0E0B0E0BC0147
:10175000CD010E946A5ADC01CB0120E030E040E07C
:1017600053E4BC01CD010E94F558DC01CB0120E01F
:1017700030E040E853E4BC01CD010E94D659DC01C1
:10178000CB0120E030E040E85FE3BC01CD010E94E6
:10179000F658DC01CB012D8D3E8DF90180A791A774
:1017A000A2A7B3A78989882F90E0A0E0B0E0BC0190
:1017B000CD010E946A5ADC01CB0120E030E040E01C
:1017C00053E4BC01CD010E94F558DC01CB0120E0BF
:1017D00030E040E853E4BC01CD010E94D659DC0161
:1017E000CB0120E030E040E85FE3BC01CD010E9486
:1017F000F658DC01CB012D8D3E8DF90184A795A70C
:10180000A6A7B7A78A89882F90E0A0E0B0E0BC0126
:10181000CD010E946A5ADC01CB0120E030E040E0BB
:1018200053E4BC01CD010E94F558DC01CB0120E05E
:1018300030E040E853E4BC01CD010E94D659DC0100
:10184000CB0120E030E040E85FE3BC01CD010E9425
:10185000F658DC01CB012D8D3E8DF90180AB91ABAB
:10186000A2ABB3AB8D8D9E8D8D5B9F4FFC01108223
:1018700000006E960FB6F894DEBF0FBECDBFDF91AD
:10188000CF911F910F91FF90EF90DF90CF9008952F
:10189000CF92DF92EF92FF920F931F93CF93DF933C
:1018A000CDB7DEB760970FB6F894DEBF0FBECDBFE1
:1018B000988B8F878F8598899C01275B3C4F80E0B0
:1018C00090E0A0E8BFE3F90180839183A283B38312
:1018D0008F859889835B9C4FFC0110821182128254
:1018E00013828F8598898F5A9C4FFC011082118238
:1018F000128213828F8598898B5A9C4FFC0110822B
:101900001182128213828F8598898C589C4FFC011A
:1019100010821182128213828F8598898C549C4F79
:10192000FC0110821182128213828F859889885857
:101930009C4FFC0110821182128213828F8598893C
:1019400088549C4FFC0110821182128213828F8571
:10195000988984589C4FFC01108211821282138254
:101960008F85988984549C4FFC01108211821282C9
:1019700013828F85988980559C4FFC0180819181CD
:10198000A281B3812F8538892C543C4FF901808383
:101990009183A283B3838F85988980599C4FFC01E2
:1019A00080819181A281B3812F85388920593C4F54
:1019B000F9012081318142815381BC01CD010E9416
:1019C000D85BDC01CB016C017D018F85988983593F
:1019D0009F4FFC0180819181A281B3812F8538893D
:1019E00027593F4FF9012081318142815381BC0148
:1019F000CD010E94F658DC01CB019C01AD01C7016D
:101A0000B6010E94D85BDC01CB018B839C83AD8344
:101A1000BE838F8598898B599F4FFC01808191816E
:101A2000A281B3812F8538892F583F4FF90120813A
:101A3000318142815381BC01CD010E94F658DC0105
:101A4000CB019C01AD016B817C818D819E810E94C7
:101A5000F658DC01CB018F839887A987BA878F85D9
:101A600098898C559C4FFC0180819181A281B38122
:101A70002F85388928553C4FF901208131814281D9
:101A80005381BC01CD010E94F658DC01CB019C01C1
:101A9000AD016B817C818D819E810E94F658DC01B5
:101AA000CB018B839C83AD83BE838F8598898754BC
:101AB0009D4F40E950E060E070E00E947D711A8225
:101AC00019825AC129813A81C901880F991F820F51
:101AD000931F86579E4FFC018081082E000C990BA6
:101AE0009C878B878B859C85092E000CAA0BBB0BD2
:101AF000BC01CD010E946C5A6B017C0129813A81A5
:101B0000C901880F991F820F931F880F991F8C019D
:101B10002F81388549855A85C701B6010E94D85B57
:101B2000DC01CB014F8558899801220F331F220F0A
:101B3000331F240F351F27543D4FF90180839183B4
:101B4000A283B38389819A819C012D5F3F4FC90194
:101B5000880F991F820F931F880F991F9E878D876B
:101B60008B859C85092E000CAA0BBB0BBC01CD01FB
:101B70000E946C5A6B017C018D859E858C010D5FE6
:101B80001F4F2B813C814D815E81C701B6010E94B0
:101B9000D85BDC01CB014F8558899801220F331F98
:101BA000220F331F240F351F27543D4FF901808327
:101BB0009183A283B38329813A81C901880F991F38
:101BC000820F931F019686579E4FFC018081082E3D
:101BD000000C990B9C878B878B859C85092E000CAC
:101BE000AA0BBB0BBC01CD010E946C5A6B017C019E
:101BF00029813A81C901880F991F820F931F880F8D
:101C0000991F8C010F5F1F4F2F81388549855A8599
:101C1000C701B6010E94D85BDC01CB014F85588912
:101C20009801220F331F220F331F240F351F275413
:101C30003D4FF90180839183A283B3838B859C857B
:101C4000092E000CAA0BBB0BBC01CD010E946C5AE3
:101C50006B017C018D859E858C010C5F1F4F2B8154
:101C60003C814D815E81C701B6010E94D85BDC01D9
:101C7000CB014F8558899801220F331F220F331F44
:101C8000240F351F27543D4FF90180839183A28390
:101C9000B38329813A81C901880F991F820F931F4D
:101CA000029686579E4FFC018081082E000C990BEE
:101CB0009C878B878B859C85092E000CAA0BBB0B00
:101CC000BC01CD010E946C5A6B017C0129813A81D3
:101CD000C901880F991F820F931F880F991F8C01CC
:101CE0000E5F1F4F2F81388549855A85C701B60180
:101CF0000E94D85BDC01CB014F8558899801220FE7
:101D0000331F220F331F240F351F27543D4FF90176
:101D100080839183A283B3838B859C85092E000CDD
:101D2000AA0BBB0BBC01CD010E946C5A6B017C015C
:101D30008D859E858C010B5F1F4F2B813C814D81D2
:101D40005E81C701B6010E94D85BDC01CB014F85E3
:101D500058899801220F331F220F331F240F351F7C
:101D600027543D4FF90180839183A283B3838981F6
:101D70009A8101969A83898389819A8103970CF4C9
:101D8000A1CE8F85988987589F4F40E452E063E940
:101D900071E00E9474718F85988984579C4FFC0173
:101DA00010821182128213828F85988980579C4FEE
:101DB000FC0110821182128213828F8598898C56C1
:101DC0009C4FFC0110821182128213828F859889A8
:101DD00087599C4F21E0FC012083000060960FB6DC
:101DE000F894DEBF0FBECDBFDF91CF911F910F9151
:101DF000FF90EF90DF90CF900895CF93DF93CDB712
:101E0000DEB728970FB6F894DEBF0FBECDBF6D8347
:101E10007E838F8398878D819E81AF81B885BF77C0
:101E200020E030E040E859E5BC01CD010E94CF59E7
:101E300088230CF056C020E030E040E05FE36D8185
:101E40007E818F8198850E94CD5B8823BCF020E045
:101E500030E040E05FE36D817E818F8198850E9454
:101E6000F658DC01CB01BC01CD010E94A75ADC0170
:101E7000CB0189839A83AB83BC833BC020E030E0F5
:101E800040E05FEB6D817E818F8198850E94CD5B04
:101E9000181684F420E030E0A9016D817E818F81E5
:101EA00098850E94D85BDC01CB0189839A83AB8340
:101EB000BC831FC020E030E040E05FE36D817E81A5
:101EC0008F8198850E94F558DC01CB01BC01CD01C2
:101ED0000E94BC59DC01CB0189839A83AB83BC830C
:101EE00008C08D819E81AF81B88589839A83AB8339
:101EF000BC8389819A81AB81BC81BC01CD012896CC
:101F00000FB6F894DEBF0FBECDBFDF91CF9108951D
:101F10000F931F93CF93DF9300D000D000D0CDB7A5
:101F2000DEB79A8389837C836B835E834D8389814B
:101F30009A81FC0180819181A281B3812B813C81B6
:101F4000F9012081318142815381BC01CD010E9480
:101F5000F558DC01CB012D813E81F901808391830D
:101F6000A283B38389819A810496FC018081918147
:101F7000A281B3812B813C812C5F3F4FF9012081ED
:101F80003181428153816D817E818B010C5F1F4FB6
:101F9000BC01CD010E94F558DC01CB01F801808322
:101FA0009183A283B38389819A810896FC01808101
:101FB0009181A281B3812B813C81285F3F4FF90140
:101FC00020813181428153816D817E818B01085F47
:101FD0001F4FBC01CD010E94F558DC01CB01F80177
:101FE00080839183A283B383000026960FB6F89472
:101FF000DEBF0FBECDBFDF91CF911F910F9108952E
:10200000CF92DF92EF92FF920F931F93CF93DF93C4
:10201000CDB7DEB76C970FB6F894DEBF0FBECDBF5D
:10202000988F8F8B7A8F698F5C8F4B8F8F89988D6C
:102030000496FC0180819181A281B381298D3A8D22
:10204000285F3F4FF9012081318142815381BC01DA
:10205000CD010E94D85BDC01CB016C017D018F8931
:10206000988D0896FC0180819181A281B381298D90
:102070003A8D2C5F3F4FF90120813181428153819C
:10208000BC01CD010E94D85BDC01CB019C01AD01FC
:10209000C701B6010E94F558DC01CB018093C6113F
:1020A0009093C711A093C811B093C9118F89988DCF
:1020B0000896FC0180819181A281B381298D3A8D9E
:1020C000F9012081318142815381BC01CD010E94FF
:1020D000D85BDC01CB016C017D018F89988DFC01FF
:1020E00080819181A281B381298D3A8D285F3F4FF4
:1020F000F9012081318142815381BC01CD010E94CF
:10210000D85BDC01CB019C01AD01C701B6010E9487
:10211000F558DC01CB018093CA119093CB11A093A9
:10212000CC11B093CD118F89988DFC018081918164
:10213000A281B381298D3A8D2C5F3F4FF901208117
:10214000318142815381BC01CD010E94D85BDC0109
:10215000CB016C017D018F89988D0496FC018081F3
:102160009181A281B381298D3A8DF901208131813C
:1021700042815381BC01CD010E94D85BDC01CB01BF
:102180009C01AD01C701B6010E94F558DC01CB01ED
:102190008093CE119093CF11A093D011B093D11111
:1021A0008B8D9C8D9C01285E3F4F8F89988DFC0103
:1021B00080819181A281B381F90180839183A2837F
:1021C000B3838B8D9C8D9C01245F3F4F8091C61102
:1021D0009091C711A091C811B091C911F9018083E4
:1021E0009183A283B3838B8D9C8D9C01245E3F4F92
:1021F0008F89988DFC0184819581A681B781F90131
:1022000080839183A283B3838B8D9C8D9C01205FFF
:102210003F4F8091CA119091CB11A091CC11B091F8
:10222000CD11F90180839183A283B3838B8D9C8D23
:102230009C01205E3F4F8F89988DFC0180859185A0
:10224000A285B385F90180839183A283B3838B8DAB
:102250009C8D9C012C5E3F4F8091CE119091CF11AF
:10226000A091D011B091D111F90180839183A28303
:10227000B3838091CA119091CB11A091CC11B091F0
:10228000CD112F89388D285F3F4FF9012081318191
:1022900042815381BC01CD010E94D85BDC01CB019E
:1022A0006C017D018091CE119091CF11A091D01140
:1022B000B091D1112F89388D2C5F3F4FF9012081CA
:1022C000318142815381BC01CD010E94D85BDC0188
:1022D000CB019C01AD01C701B6010E94F558DC019C
:1022E000CB012B8D3C8DF90180839183A283B38335
:1022F0008091CE119091CF11A091D011B091D111B8
:102300002F89388DF9012081318142815381BC01AF
:10231000CD010E94D85BDC01CB016C017D01809175
:10232000C6119091C711A091C811B091C9112F8900
:10233000388D285F3F4FF9012081318142815381DF
:10234000BC01CD010E94D85BDC01CB019C01AD0139
:102350008B8D9C8D8C010C5F1F4FC701B6010E94B5
:10236000F558DC01CB01F80180839183A283B3830C
:102370008091C6119091C711A091C811B091C91157
:102380002F89388D2C5F3F4FF901208131814281A7
:102390005381BC01CD010E94D85BDC01CB016C01F3
:1023A0007D018091CA119091CB11A091CC11B09177
:1023B000CD112F89388DF9012081318142815381DE
:1023C000BC01CD010E94D85BDC01CB019C01AD01B9
:1023D0008B8D9C8D8C01085F1F4FC701B6010E9439
:1023E000F558DC01CB01F80180839183A283B3838C
:1023F0001A82198233C089819A81880F991F880FA8
:10240000991F2B8D3C8D820F931FFC018081918140
:10241000A281B3818D839E83AF83B8872D813E8156
:102420004F8158856D817E818F8198850E94D85B10
:10243000DC01CB0129813A812D523D4F220F331F00
:10244000220F331F2A523A4FF90180839183A283CE
:10245000B38389819A8101969A83898389819A813C
:1024600009974CF21A8219825AC029813A81C9010E
:10247000880F991F820F931F9A87898789859A856C
:1024800002968D529D4F880F991F880F991F8A526F
:102490009A4FFC01C080D180E280F38089859A85C3
:1024A00001968D529D4F880F991F880F991F8A5250
:1024B0009A4FFC0180819181A281B38129853A855F
:1024C0002D523D4F220F331F220F331F2A523A4FF6
:1024D000F9012081318142815381BC01CD010E94EB
:1024E000F658DC01CB019C01AD01C701B6010E9489
:1024F000F658DC01CB0129813A8124503D4F220F4F
:10250000331F220F331F2A523A4FF90180839183E0
:10251000A283B38389819A8101969A838983898171
:102520009A8103970CF4A1CF8091C6119091C711A5
:10253000A091C811B091C911BC01CD010E94455CA8
:10254000DC01CB018093C6119093C711A093C811F1
:10255000B093C9118091CA119091CB11A091CC1167
:10256000B091CD11BC01CD010E94455CDC01CB01D5
:102570008093CA119093CB11A093CC11B093CD113D
:102580008091CE119091CF11A091D011B091D11125
:10259000BC01CD010E94455CDC01CB018093CE11D2
:1025A0009093CF11A093D011B093D1118B8D9C8DAE
:1025B00044E250E0BC0182E291E10E9474711A820F
:1025C0001982B2C089819A8184509D4F880F991FCA
:1025D000880F991F8A529A4FFC0180819181A281B4
:1025E000B3818D839E83AF83B88729813A81C901E6
:1025F000880F991F820F931F8D529D4F880F991F2F
:10260000880F991F8A529A4FFC01E080F180028165
:10261000138129813A81C901880F991F820F931F65
:10262000880F991F880F991F9C018B8D9C8D6C01C1
:10263000C20ED31E2D813E814F815885C801B7013E
:102640000E94D659DC01CB01F60180839183A283DD
:10265000B38329813A81C901880F991F820F931F83
:1026600001969A87898789859A858D529D4F880F13
:10267000991F880F991F8A529A4FFC01808191817E
:10268000A281B38129853A85220F331F220F331F80
:102690004B8D5C8D8A01020F131F2D813E814F816E
:1026A0005885BC01CD010E94D659DC01CB01F8014F
:1026B00080839183A283B38329813A81C901880FE2
:1026C000991F820F931F02969A87898789859A8519
:1026D0008D529D4F880F991F880F991F8A529A4FCC
:1026E000FC0180819181A281B38129853A85220FE5
:1026F000331F220F331F4B8D5C8D8A01020F131F76
:102700002D813E814F815885BC01CD010E94D65953
:10271000DC01CB01F80180839183A283B38389819B
:102720009A8101969A83898389819A8103970CF40F
:1027300049CF1A82198222C089819A81880F991FF4
:10274000880F991F2B8D3C8D820F931FFC01808178
:102750009181A281B381BC01CD010E941657482FFF
:102760009E01255F3F4F89819A81820F931FFC0153
:10277000408389819A8101969A83898389819A818C
:102780000997D4F21C8A1D8A1E8A81E090E09A8300
:1027900089831B8216C089819A8101979E01255FDA
:1027A0003F4F820F931FFC018081882331F4898180
:1027B0009A8101969A83898304C081E08C8B81E0A1
:1027C0008B838B81882321F489819A8104971CF360
:1027D00084E090E09A8389831B8216C089819A8164
:1027E00001979E01255F3F4F820F931FFC0180815F
:1027F000882331F489819A8101969A83898304C060
:1028000081E08D8B81E08B838B81882321F489810A
:102810009A8107971CF387E090E09A8389831B8253
:1028200016C089819A8101979E01255F3F4F820FD3
:10283000931FFC018081882331F489819A8101965C
:102840009A83898304C081E08E8B81E08B838B81A6
:10285000882321F489819A810A971CF31C821A82A9
:1028600019821B8215C09E012C5E3F4F89819A817F
:10287000820F931FFC018081882331F489819A8122
:1028800001969A83898304C081E08C8381E08B83E5
:102890008B81882321F489819A81039724F38C8189
:1028A000882379F18B8D9C8D44E250E060E070E0EC
:1028B0000E947D712B8D3C8D80E090E0A0E8BFE30D
:1028C000F90180839183A283B3838B8D9C8D9C01BE
:1028D000205F3F4F80E090E0A0E8BFE3F9018083F4
:1028E0009183A283B3838B8D9C8D9C01205E3F4F8F
:1028F00080E090E0A0E8BFE3F90180839183A283A8
:10290000B38300006C960FB6F894DEBF0FBECDBF48
:10291000DF91CF911F910F91FF90EF90DF90CF90BB
:102920000895EF92FF920F931F93CF93DF93CDB74C
:10293000DEB769970FB6F894DEBF0FBECDBF998B97
:10294000888B7B8B6A8B5D8B4C8B3F8B2E8B198F8F
:10295000088F88899989FC0180819181A281B38146
:1029600028893989205F3F4FF901208131814281D7
:102970005381BC01CD010E94F658DC01CB017C01E2
:102980008D01888999898096FC0180819181A2813D
:10299000B3819C01AD01C801B7010E94F658DC016A
:1029A000CB0189839A83AB83BC8389819A81AB8174
:1029B000BC819C01AD01BC01CD010E94F658DC0137
:1029C000CB0120E030E040E85FE3BC01CD010E9494
:1029D000F658DC01CB0129813A814B815C81BC0135
:1029E000CD010E94F558DC01CB0180936E119093CC
:1029F0006F11A0937011B093711188899989FC01AE
:102A000080819181A281B3819C01AD01BC01CD0186
:102A10000E94F658DC01CB0120E030E040E85FE3A3
:102A2000BC01CD010E94F658DC01CB0129813A811D
:102A30004B815C81BC01CD010E94F558DC01CB01CA
:102A40008093721190937311A0937411B0937511C8
:102A5000888999894096FC0180819181A281B38106
:102A60009C01AD01BC01CD010E94F658DC01CB01F7
:102A700020E030E040E85FE3BC01CD010E94F65861
:102A8000DC01CB0129813A814B815C81BC01CD0104
:102A90000E94F558DC01CB01809376119093771159
:102AA000A0937811B0937911888999898096FC0157
:102AB00080819181A281B3819C01AD01BC01CD01D6
:102AC0000E94F658DC01CB0120E030E040E85FE3F3
:102AD000BC01CD010E94F658DC01CB0129813A816D
:102AE0004B815C81BC01CD010E94F558DC01CB011A
:102AF00080937A1190937B11A0937C11B0937D11F8
:102B000080916E1190916F11A0917011B09171111F
:102B1000BC01CD010E941657882329F481E090E082
:102B20009E838D8331C01E821D8282E090E09A8751
:102B300089871B8622C089859A8501978A519D4F76
:102B4000880F991F880F991F8A529A4FFC01808124
:102B50009181A281B381BC01CD010E9416578823C7
:102B600039F489859A859E838D8381E08B8705C0A2
:102B700089859A8501969A8789878B85882321F490
:102B800089859A850597BCF28D819E81892B89F470
:102B900080916E1190916F11A0917011B09171118F
:102BA00089839A83AB83BC8381E090E09E838D838D
:102BB00057C08D819E8101978A519D4F880F991F23
:102BC000880F991F8A529A4FFC0180819181A281BE
:102BD000B38189839A83AB83BC838D819E819887DF
:102BE0008F838D819E8101969A87898731C08985DF
:102BF0009A8501978A519D4F880F991F880F991FB9
:102C00008A529A4FFC0180819181A281B3818C8785
:102C10009D87AE87BF872C853D854E855F85698101
:102C20007A818B819C810E94CF59882364F48C85A2
:102C30009D85AE85BF8589839A83AB83BC83898557
:102C40009A8598878F8389859A8501969A8789873F
:102C500089859A8505975CF28F8198859E838D83FF
:102C60008D819E818230910509F4B1C08330910538
:102C700009F457C1019709F0FEC189819A81AB819E
:102C8000BC81BC01CD010E94455CDC01CB01898384
:102C90009A83AB83BC8320E030E040E05FE369814E
:102CA0007A818B819C810E94D85BDC01CB012A89CF
:102CB0003B89F90180839183A283B38329813A817F
:102CC0004B815C8160E070E080E09FE30E94D65918
:102CD000DC01CB0189839A83AB83BC838889998982
:102CE0004C96FC0180819181A281B3812889398928
:102CF0002C5E3F4FF9012081318142815381BC011B
:102D0000CD010E94F558DC01CB0129813A814B812C
:102D10005C81BC01CD010E94D85BDC01CB012C8918
:102D20003D89F90180839183A283B383888999893E
:102D30000896FC0180819181A281B381288939891B
:102D4000285E3F4FF9012081318142815381BC01CE
:102D5000CD010E94F558DC01CB0129813A814B81DC
:102D60005C81BC01CD010E94D85BDC01CB012E89C6
:102D70003F89F90180839183A283B38388899989EC
:102D80000C96FC0180819181A281B38128893989C7
:102D90002C5F3F4FF9012081318142815381BC0179
:102DA000CD010E94F558DC01CB0129813A814B818C
:102DB0005C81BC01CD010E94D85BDC01CB01288D78
:102DC000398DF90180839183A283B383FEC1898108
:102DD0009A81AB81BC81BC01CD010E94455CDC01C4
:102DE000CB0189839A83AB83BC8320E030E040E051
:102DF0005FE369817A818B819C810E94D85BDC01D1
:102E0000CB012C893D89F90180839183A283B3830F
:102E100029813A814B815C8160E070E080E09FE332
:102E20000E94D659DC01CB0189839A83AB83BC8392
:102E3000888999894C96FC0180819181A281B38116
:102E4000288939892C5E3F4FF901208131814281E7
:102E50005381BC01CD010E94F558DC01CB012981D1
:102E60003A814B815C81BC01CD010E94D85BDC01C1
:102E7000CB012A893B89F90180839183A283B383A3
:102E8000888999890C96FC0180819181A281B38106
:102E9000288939892C5F3F4FF90120813181428196
:102EA0005381BC01CD010E94F658DC01CB01298180
:102EB0003A814B815C81BC01CD010E94D85BDC0171
:102EC000CB012E893F89F90180839183A283B3834B
:102ED000888999890896FC0180819181A281B381BA
:102EE00028893989285E3F4FF9012081318142814B
:102EF0005381BC01CD010E94F658DC01CB01298130
:102F00003A814B815C81BC01CD010E94D85BDC0120
:102F1000CB01288D398DF90180839183A283B383FE
:102F200054C189819A81AB81BC81BC01CD010E94D1
:102F3000455CDC01CB0189839A83AB83BC8320E0B1
:102F400030E040E05FE369817A818B819C810E945F
:102F5000D85BDC01CB012E893F89F9018083918305
:102F6000A283B38329813A814B815C8160E070E068
:102F700080E09FE30E94D659DC01CB0189839A83CC
:102F8000AB83BC83888999890896FC0180819181F3
:102F9000A281B38128893989285E3F4FF9012081B8
:102FA000318142815381BC01CD010E94F558DC0181
:102FB000CB0129813A814B815C81BC01CD010E940A
:102FC000D85BDC01CB012A893B89F901808391839D
:102FD000A283B383888999890C96FC0180819181B1
:102FE000A281B381288939892C5F3F4FF901208163
:102FF000318142815381BC01CD010E94F658DC0130
:10300000CB0129813A814B815C81BC01CD010E94B9
:10301000D85BDC01CB012C893D89F9018083918348
:10302000A283B383888999894C96FC018081918120
:10303000A281B381288939892C5E3F4FF901208113
:10304000318142815381BC01CD010E94F658DC01DF
:10305000CB0129813A814B815C81BC01CD010E9469
:10306000D85BDC01CB01288D398DF90180839183F8
:10307000A283B383AAC089819A81AB81BC81BC0140
:10308000CD010E94455CDC01CB0189839A83AB832F
:10309000BC8320E030E040E05FE369817A818B818E
:1030A0009C810E94D85BDC01CB01288D398DF90110
:1030B00080839183A283B38329813A814B815C8190
:1030C00060E070E080E09FE30E94D659DC01CB0114
:1030D00089839A83AB83BC83888999890C96FC0188
:1030E00080819181A281B381288939892C5F3F4FEA
:1030F000F9012081318142815381BC01CD010E94BF
:10310000F558DC01CB0129813A814B815C81BC01FE
:10311000CD010E94D85BDC01CB012A893B89F901F2
:1031200080839183A283B383888999890896FC015F
:1031300080819181A281B38128893989285E3F4F9E
:10314000F9012081318142815381BC01CD010E946E
:10315000F658DC01CB0129813A814B815C81BC01AD
:10316000CD010E94D85BDC01CB012C893D89F9019E
:1031700080839183A283B383888999894C96FC01CB
:1031800080819181A281B381288939892C5E3F4F4A
:10319000F9012081318142815381BC01CD010E941E
:1031A000F658DC01CB0129813A814B815C81BC015D
:1031B000CD010E94D85BDC01CB012E893F89F9014A
:1031C00080839183A283B38300008A899B89FC0159
:1031D00080819181A281B38120E030E0A901BC010E
:1031E000CD010E94CF5988230CF03CC08A899B896D
:1031F000FC0180819181A281B381B0582A893B89E9
:10320000F90180839183A283B3838C899D89FC011A
:1032100080819181A281B381B0582C893D89F901C7
:1032200080839183A283B3838E899F89FC018081EF
:103230009181A281B381B0582E893F89F9018083A1
:103240009183A283B383888D998DFC0180819181C4
:10325000A281B381B058288D398DF9018083918383
:10326000A283B383000069960FB6F894DEBF0FBE49
:10327000CDBFDF91CF911F910F91FF90EF900895F7
:10328000CF92DF92EF92FF920F931F93CF93DF9332
:10329000CDB7DEB762970FB6F894DEBF0FBECDBFD5
:1032A0009A8789877C876B875E874D87388B2F87C6
:1032B0001A8B098B2B853C8580E090E0A0E8BFE36A
:1032C000F90180839183A283B3838D859E85FC0160
:1032D00010821182128213828F859889FC011082DC
:1032E00011821282138289899A89FC0110821182CB
:1032F0001282138289859A85FC0180819181A28145
:10330000B38129853A85F901208131814281538138
:10331000BC01CD010E94D85BDC01CB016C017D01B9
:1033200089859A850496FC0180819181A281B3816F
:1033300029853A852C5F3F4FF901208131814281F7
:103340005381BC01CD010E94D85BDC01CB019C0103
:10335000AD01C701B6010E94F658DC01CB016C013A
:103360007D0189859A850896FC0180819181A281E1
:10337000B38129853A85285F3F4FF901208131814A
:1033800042815381BC01CD010E94D85BDC01CB019D
:103390009C01AD01C701B6010E94F658DC01CB01CA
:1033A000BC01CD010E94455CDC01CB0189839A837D
:1033B000AB83BC8320E030E040E050E469817A8157
:1033C0008B819C810E94D659DC01CB01BC01CD01CF
:1033D0000E943B5CDC01CB018D839E83AF83B88769
:1033E00020E030E0A90169817A818B819C810E9473
:1033F000CF59882309F481C020E030E040E050E458
:1034000069817A818B819C810E94D659DC01CB0134
:10341000BC01CD010E94D359DC01CB012B853C8539
:10342000F90180839183A283B38389859A85FC0106
:1034300080819181A281B38129813A814B815C8114
:10344000BC01CD010E94D659DC01CB012D813E810A
:103450004F815885BC01CD010E94D85BDC01CB01B6
:103460002D853E85F90180839183A283B38389856D
:103470009A850496FC0180819181A281B381298182
:103480003A814B815C81BC01CD010E94D659DC019F
:10349000CB012D813E814F815885BC01CD010E9419
:1034A000D85BDC01CB012F853889F90180839183BA
:1034B000A283B38389859A850896FC0180819181D6
:1034C000A281B38129813A814B815C81BC01CD010C
:1034D0000E94D659DC01CB012D813E814F81588558
:1034E000BC01CD010E94D85BDC01CB0129893A895E
:1034F000F90180839183A283B383000062960FB6A3
:10350000F894DEBF0FBECDBFDF91CF911F910F9119
:10351000FF90EF90DF90CF9008958F929F92AF929F
:10352000BF92CF92DF92EF92FF920F931F93CF93B0
:10353000DF93CDB7DEB766970FB6F894DEBF0FBE48
:10354000CDBF9E838D8378876F835A8749870B878A
:103550001C872D873E87CF86D88AE98AFA8A8B8A8C
:103560009C8AAD8ABE8A8F819885FC018081918179
:10357000A281B38129853A85F90120813181428177
:103580005381BC01CD010E94F558DC01CB017C01C7
:103590008D018D819E8184599C4FFC018081918198
:1035A000A281B3819C01AD01C801B7010E94D85B23
:1035B000DC01CB018093D2119093D311A093D4114D
:1035C000B093D5118F8198850496FC0180819181FB
:1035D000A281B38129853A852C5F3F4FF901208173
:1035E000318142815381BC01CD010E94F558DC013B
:1035F000CB017C018D018D819E8184599C4FFC0102
:1036000080819181A281B3819C01AD01C801B70184
:103610000E94D85BDC01CB018093D6119093D71127
:10362000A093D811B093D9118F8198850896FC0189
:1036300080819181A281B38129853A85285F3F4F9E
:10364000F9012081318142815381BC01CD010E9469
:10365000F558DC01CB017C018D018D819E8184595F
:103660009C4FFC0180819181A281B3819C01AD01BD
:10367000C801B7010E94D85BDC01CB018093DA114D
:103680009093DB11A093DC11B093DD11CE01019674
:103690008C0122E632E14EE552E16AE572E182ED0B
:1036A00091E1EEDD80915A1290915B12A0915C1233
:1036B000B0915D122B853C854D855E85BC01CD01A9
:1036C0000E94D85BDC01CB016C017D0180915E1210
:1036D00090915F12A0916012B09161122F8538898C
:1036E00049895A89BC01CD010E94D85BDC01CB011C
:1036F0009C01AD01C701B6010E94F558DC01CB0168
:103700006C017D018091621290916312A09164120C
:10371000B09165122B893C894D895E89BC01CD0130
:103720000E94D85BDC01CB019C01AD01C701B60151
:103730000E94F558DC01CB016C017D0189819A81E1
:10374000AB81BC812DA13EA14FA158A5BC01CD01EB
:103750000E94D85BDC01CB019C01AD01C701B60121
:103760000E94F558DC01CB0129A53AA5F901808317
:103770009183A283B38380915E1290915F12A09196
:103780006012B09161122B853C854D855E85BC0130
:10379000CD010E94D85BDC01CB016C017D018091E1
:1037A0005A1290915B12A0915C12B0915D122F851C
:1037B000388949895A89BC01CD010E94D85BDC0156
:1037C000CB019C01AD01C701B6010E94F658DC0196
:1037D000CB016C017D0189819A81AB81BC812B89F0
:1037E0003C894D895E89BC01CD010E94D85BDC011A
:1037F000CB019C01AD01C701B6010E94F658DC0166
:10380000CB016C017D018091621290916312A091B5
:103810006412B09165122DA13EA14FA158A5BC0123
:10382000CD010E94D85BDC01CB019C01AD01C70139
:10383000B6010E94F558DC01CB012BA53CA5F9018E
:1038400080839183A283B3838091621290916312EB
:10385000A0916412B09165122B853C854D855E85E3
:10386000BC01CD010E94D85BDC01CB016C017D0164
:1038700089819A81AB81BC812F85388949895A8990
:10388000BC01CD010E94D85BDC01CB019C01AD01E4
:10389000C701B6010E94F558DC01CB016C017D0126
:1038A00080915A1290915B12A0915C12B0915D12BE
:1038B0002B893C894D895E89BC01CD010E94D85B72
:1038C000DC01CB019C01AD01C701B6010E94F65895
:1038D000DC01CB016C017D0180915E1290915F1241
:1038E000A0916012B09161122DA13EA14FA158A5E7
:1038F000BC01CD010E94D85BDC01CB019C01AD0174
:10390000C701B6010E94F658DC01CB012DA53EA5EA
:10391000F90180839183A283B38389819A81AB81EA
:10392000BC812B853C854D855E85BC01CD010E9407
:10393000D85BDC01CB016C017D018091621290911A
:103940006312A0916412B09165122F85388949895C
:103950005A89BC01CD010E94D85BDC01CB019C01DE
:10396000AD01C701B6010E94F658DC01CB016C0124
:103970007D0180915E1290915F12A0916012B091D2
:1039800061122B893C894D895E89BC01CD010E9461
:10399000D85BDC01CB019C01AD01C701B6010E94DF
:1039A000F558DC01CB016C017D0180915A12909198
:1039B0005B12A0915C12B0915D122DA13EA14FA1AE
:1039C00058A5BC01CD010E94D85BDC01CB019C0154
:1039D000AD01C701B6010E94F658DC01CB012FA54D
:1039E00038A9F90180839183A283B38389A59AA51D
:1039F000FC0180819181A281B38120E030E0A901A6
:103A0000BC01CD010E94CF5988230CF03CC089A590
:103A10009AA5FC0180819181A281B381B05829A52A
:103A20003AA5F90180839183A283B3838BA59CA5DA
:103A3000FC0180819181A281B381B0582BA53CA566
:103A4000F90180839183A283B3838DA59EA5FC0198
:103A500080819181A281B381B0582DA53EA5F90145
:103A600080839183A283B3838FA598A9FC01808171
:103A70009181A281B381B0582FA538A9F901808323
:103A80009183A283B383000066960FB6F894DEBFDD
:103A90000FBECDBFDF91CF911F910F91FF90EF909F
:103AA000DF90CF90BF90AF909F908F9008958F92AE
:103AB0009F92AF92BF92CF92DF92EF92FF920F93BD
:103AC0001F93CF93DF93CDB7DEB76E970FB6F89401
:103AD000DEBF0FBECDBF6D877E878F87988B298B0A
:103AE0003A8B4B8B5C8BED8AFE8A0F8B188FA98EDD
:103AF000BA8ECB8EDC8E9E8E8D8E2D853E854F852B
:103B000058896D857E858F8598890E94D85BDC01F8
:103B1000CB016C017D0129893A894B895C896989CE
:103B20007A898B899C890E94D85BDC01CB019C013E
:103B3000AD01C701B6010E94F658DC01CB016C0152
:103B40007D012D893E894F89588D6D897E898F89A8
:103B5000988D0E94D85BDC01CB019C01AD01C701AF
:103B6000B6010E94F658DC01CB016C017D01298D64
:103B70003A8D4B8D5C8D698D7A8D8B8D9C8D0E94DD
:103B8000D85BDC01CB019C01AD01C701B6010E94ED
:103B9000F658DC01CB01BC01CD010E94455CDC0183
:103BA000CB0189839A83AB83BC8329813A814B8182
:103BB0005C816D857E858F8598890E94D659DC0150
:103BC000CB018D879E87AF87B88B29813A814B8146
:103BD0005C8169897A898B899C890E94D659DC012C
:103BE000CB01898B9A8BAB8BBC8B29813A814B8122
:103BF0005C816D897E898F89988D0E94D659DC0100
:103C0000CB018D8B9E8BAF8BB88F29813A814B81F5
:103C10005C81698D7A8D8B8D9C8D0E94D659DC01DB
:103C2000CB01898F9A8FAB8FBC8F29893A894B89B9
:103C30005C896D857E858F8598890E94D85BDC01C3
:103C4000CB019C01AD01BC01CD010E94F658DC0105
:103C5000CB0189839A83AB83BC832D893E894F89AD
:103C6000588D6D857E858F8598890E94D85BDC0193
:103C7000CB019C01AD01BC01CD010E94F658DC01D5
:103C8000CB018093661290936712A0936812B09351
:103C90006912298D3A8D4B8D5C8D6D857E858F8562
:103CA00098890E94D85BDC01CB019C01AD01BC016D
:103CB000CD010E94F658DC01CB0180936A129093EB
:103CC0006B12A0936C12B0936D122D893E894F89AF
:103CD000588D69897A898B899C890E94D85BDC011F
:103CE000CB019C01AD01BC01CD010E94F658DC0165
:103CF000CB0180936E1290936F12A0937012B093C9
:103D00007112298D3A8D4B8D5C8D69897A898B89E9
:103D10009C890E94D85BDC01CB019C01AD01BC01F8
:103D2000CD010E94F658DC01CB0180937212909372
:103D30007312A0937412B0937512298D3A8D4B8D26
:103D40005C8D6D897E898F89988D0E94D85BDC019E
:103D5000CB019C01AD01BC01CD010E94F658DC01F4
:103D6000CB018D839E83AF83B8872D853E854F859C
:103D700058896D857E858F8598890E94D85BDC0186
:103D8000CB019C01AD01BC01CD010E94F658DC01C4
:103D9000CB0120E030E040E85FE3BC01CD010E94B0
:103DA000F558DC01CB0189879A87AB87BC872989C5
:103DB0003A894B895C8969897A898B899C890E94B7
:103DC000D85BDC01CB019C01AD01BC01CD010E949F
:103DD000F658DC01CB0129853A854B855C85BC0111
:103DE000CD010E94F658DC01CB012D8D3E8DF901ED
:103DF00080839183A283B38380916E1290916F121E
:103E0000A0917012B091711220916A1230916B12D0
:103E100040916C1250916D126D8D7E8D8B01045FFF
:103E20001F4FBC01CD010E94F658DC01CB01F80107
:103E300080839183A283B3838091721290917312D5
:103E4000A0917412B0917512209166123091671290
:103E500040916812509169126D8D7E8D8B01085EC4
:103E60001F4FBC01CD010E94F558DC01CB01F801C8
:103E700080839183A283B38380916E1290916F129D
:103E8000A0917012B091711220916A1230916B1250
:103E900040916C1250916D126D8D7E8D8B010C5F77
:103EA0001F4FBC01CD010E94F558DC01CB01F80188
:103EB00080839183A283B3832D893E894F89588D56
:103EC0006D897E898F89988D0E94D85BDC01CB013A
:103ED0009C01AD01BC01CD010E94F658DC01CB0173
:103EE0006C017D018D8D9E8D8C01005F1F4F29859A
:103EF0003A854B855C85C701B6010E94F658DC0106
:103F0000CB01F80180839183A283B3838D8D9E8D35
:103F10008C01045E1F4F29813A814B815C816D8148
:103F20007E818F8198850E94F658DC01CB01F801D3
:103F300080839183A283B3838091721290917312D4
:103F4000A0917412B091751220916612309167128F
:103F500040916812509169126D8D7E8D8B01085FC2
:103F60001F4FBC01CD010E94F658DC01CB01F801C6
:103F700080839183A283B3838D8D9E8D8C010C5E93
:103F80001F4F29813A814B815C816D817E818F81B8
:103F900098850E94F558DC01CB01F801808391835C
:103FA000A283B383298D3A8D4B8D5C8D698D7A8D7B
:103FB0008B8D9C8D0E94D85BDC01CB019C01AD01F7
:103FC000BC01CD010E94F658DC01CB016C017D01E2
:103FD0008D8D9E8D8C01005E1F4F29853A854B8506
:103FE0005C85C701B6010E94F658DC01CB01F801DF
:103FF00080839183A283B38300006E960FB6F894FA
:10400000DEBF0FBECDBFDF91CF911F910F91FF900B
:10401000EF90DF90CF90BF90AF909F908F900895DA
:104020008F929F92AF92BF92CF92DF92EF92FF92C8
:104030000F931F93CF93DF93CDB7DEB76F970FB674
:10404000F894DEBF0FBECDBF9B8F8A8F7D8F6C8FA4
:104050005F8F4E8F8C8D9D8D40E950E0BC0186EFC7
:104060009FE00E9474711A82198211C089818F5F4A
:10407000482F9E012C5E3F4F89819A81820F931FAA
:10408000FC01408389819A8101969A838983898181
:104090009A8106975CF31A82198266C229813A8155
:1040A000C901880F991F880F991F880F991F821BBC
:1040B000930B02969F878E8729813A81C901880FC9
:1040C000991F880F991F880F991F821B930B9A873E
:1040D000898726E030E089819A81A901481B590B24
:1040E000CA01998B888B81E090E098878F838E85B9
:1040F0009F8502979E838D8389859A8588579D4FDA
:10410000880F991F880F991F8A529A4FFC0180814E
:104110009181A281B381BF7780934A1290934B1211
:10412000A0934C12B0934D1282E090E09C878B8755
:104130004CC08D819E8101969E838D838D819E8151
:1041400088579D4F880F991F880F991F8A529A4F41
:10415000FC0180819181A281B381BF7780934E124F
:1041600090934F12A0935012B093511280914E121F
:1041700090914F12A0915012B091511220914A1279
:1041800030914B1240914C1250914D12BC01CD0117
:104190000E94CD5B1816A4F48B859C8598878F832D
:1041A00080914E1290914F12A0915012B0915112E5
:1041B00080934A1290934B12A0934C12B0934D12DD
:1041C0008B859C8501969C878B872B853C85888970
:1041D0009989821793070CF0ACCF2E853F858F818C
:1041E0009885820F931F039788579D4F880F991FBB
:1041F000880F991F8A529A4FFC0180819181A28178
:10420000B38120E030E0A901BC01CD010E94CF596B
:10421000882309F4D8C08F819885019709F47EC05E
:104220002F81388589819A81820F931F98878F8388
:104230004F819E012C5E3F4F89819A81820F931F8F
:10424000FC01408389819A819E838D838F8198852B
:10425000019798878F831C861B865BC08D819E810A
:1042600088579D4F880F991F880F991F8A529A4F20
:10427000FC0180819181A281B38180934A12909345
:104280004B12A0934C12B0934D128F819885885792
:104290009D4F880F991F880F991F8A529A4FFC01D2
:1042A00080819181A281B3812D813E8128573D4F2C
:1042B000220F331F220F331F2A523A4FF9018083F6
:1042C0009183A283B38380914A1290914B12A09163
:1042D0004C12B0914D122F81388528573D4F220F37
:1042E000331F220F331F2A523A4FF90180839183E3
:1042F000A283B3838D819E8106969E838D838F8159
:104300009885069698878F838B859C8501969C87D8
:104310008B878B859C8506970CF4A0CF2E853F85D7
:1043200089819A81A901481B590BCA0198878F83FB
:104330008E859F859C878B873DC08B859C8501974B
:1043400088579D4F880F991F880F991F8A529A4F3F
:10435000FC0180819181A281B38129853A8528570A
:104360003D4F220F331F220F331F2A523A4FF901BC
:1043700020813181428153816B857C858B01015085
:104380001109BC01CD010E94D659DC01CB01980175
:1043900028573D4F220F331F220F331F2A523A4F07
:1043A000F90180839183A283B3838B859C850196D9
:1043B0009C878B878F81988504962B853C858217F7
:1043C00093070CF0BACF24E030E089819A81A901EB
:1043D000481B590BCA01998B888B89859A8506964B
:1043E0009C878B8718861F82B2C08B859C858857D7
:1043F0009D4F880F991F880F991F8A529A4FFC0171
:1044000080819181A281B38180934A1290934B1253
:10441000A0934C12B0934D128B859C8588579D4F6D
:10442000880F991F880F991F8A529A4FFC0180812B
:104430009181A281B38120E030E0A901BC01CD01CE
:104440000E94CF59882309F473C08E859F850197F8
:104450009E838D8329853A8589819A81A901481B8C
:10446000590BCA019B8B8A8B89859A8508969C83F8
:104470008B8355C08B819C81019788579D4F880FF6
:10448000991F880F991F8A529A4FFC01C080D180D2
:10449000E280F3808D819E8188579D4F880F991F00
:1044A000880F991F8A529A4FFC0180809180A280C8
:1044B000B38080914A1290914B12A0914C12B0910E
:1044C0004D12B0589C01AD01C501B4010E94D85BEA
:1044D000DC01CB019C01AD018B819C818C010150E1
:1044E0001109C701B6010E94F658DC01CB01980101
:1044F00028573D4F220F331F220F331F2A523A4FA6
:10450000F90180839183A283B3838D819E8101967B
:104510009E838D838B819C8101969C838B838A896A
:104520009B890C962B813C81821793070CF0A2CFBC
:104530008B859C8506969C878B8789859A850696B0
:104540009A8789878F819885019698878F832F8195
:10455000388588899989821793070CF046CF89811D
:104560009A8101969A83898389819A8105970CF4AF
:1045700095CD2A8D3B8D8E8D9F8D40E251E0B90106
:104580000E9474711A8219823AC129813A81C90143
:10459000880F991F820F931F880F991F880F991FEB
:1045A00001979A87898729813A81C901880F991FC4
:1045B000820F931F880F991F0197998B888B898190
:1045C0009A81019798878F831C861B86A3C02B85B1
:1045D0003C85C901880F991F820F931F880F991F6F
:1045E000880F991F01979B8B8A8B2B853C85888927
:1045F0009989820F931F019688579D4F880F991FA5
:10460000880F991F8A529A4FFC0180819181A28163
:10461000B38180934A1290934B12A0934C12B093A3
:104620004D1280914A1290914B12A0914C12B09170
:104630004D1220E030E0A901BC01CD010E94CF590C
:10464000882309F462C01E821D825AC02D813E81DA
:1046500089859A85820F931F01969F878E878E8505
:104660009F85880F991F880F991F2E8D3F8D820F70
:10467000931FFC01C080D180E280F38080914A12B8
:1046800090914B12A0914C12B0914D124D815E81D0
:104690002A893B89240F351F2F5F3F4F220F331F7D
:1046A000220F331F4E8D5F8D240F351FF90120819E
:1046B000318142815381BC01CD010E94D85BDC0174
:1046C000CB01AC01BD018E859F85880F991F880F96
:1046D000991F2E8D3F8D8901080F191F9A01AB017B
:1046E000C701B6010E94F558DC01CB01F8018083B7
:1046F0009183A283B3838D819E8101969E838D8356
:104700008D819E810C970CF4A1CF8B859C850196A1
:104710009C878B872B853C858F8198858217930793
:104720000CF055CF29813A8188899989820F931F8E
:10473000019688579D4F880F991F880F991F8A529D
:104740009A4FFC0180819181A281B3819C01AD01CE
:1047500060E070E080E89FE30E94D659DC01CB0165
:1047600080934A1290934B12A0934C12B0934D1227
:1047700018861F823BC02F81388589859A85820FD4
:10478000931F01969F878E878E859F85880F991F1F
:10479000880F991F2E8D3F8D820F931FFC01808102
:1047A0009181A281B38120914A1230914B124091A4
:1047B0004C1250914D126E857F85660F771F660FE4
:1047C000771FEE8DFF8D8F01060F171FBC01CD01E6
:1047D0000E94D85BDC01CB01F80180839183A28326
:1047E000B3838F819885019698878F838F81988571
:1047F0000C970CF289819A8101969A838983898129
:104800009A8106970CF4C1CE85E090E098878F835B
:10481000CEC02F813885C901880F991F820F931F41
:10482000880F991F880F991F01979A8789872F8171
:104830003885C901880F991F820F931F880F991F10
:104840000197998B888B8F81988502969C878B879F
:10485000A4C08B859C859C0121503109C901880F1A
:10486000991F820F931F880F991F880F991F019717
:104870009B8B8A8B2B853C8588899989820F931F16
:1048800088579D4F880F991F880F991F8A529A4FFA
:10489000FC0180819181A281B38180934A1290931F
:1048A0004B12A0934C12B0934D1280914A129091EA
:1048B0004B12A0914C12B0914D1220E030E0A901B2
:1048C000BC01CD010E94CF59882309F461C01E822A
:1048D0001D8259C02D813E8189859A85820F931F43
:1048E00001969F878E878E859F85880F991F880FD9
:1048F000991F2E8D3F8D820F931FFC01C080D180A8
:10490000E280F3802D813E818A899B89820F931FEB
:104910000196880F991F880F991F2E8D3F8D820F4A
:10492000931FFC0180819181A281B38120914A1261
:1049300030914B1240914C1250914D12BC01CD015F
:104940000E94D85BDC01CB01AC01BD018E859F8547
:10495000880F991F880F991F2E8D3F8D8901080F91
:10496000191F9A01AB01C701B6010E94F558DC017D
:10497000CB01F80180839183A283B3838D819E81D3
:1049800001969E838D838D819E810C970CF4A2CF1E
:104990008B859C8501969C878B878B859C8507974B
:1049A0000CF457CF8F819885019798878F838F81DB
:1049B000988599230CF02DCF84E090E098878F8321
:1049C0009EC09E012C5E3F4F8F819885820F931F62
:1049D000FC0180818D878F8198859C012F5F3F4FDF
:1049E0008D85082E000C990B2817390709F482C011
:1049F0001E821D827AC02F813885C901880F991FB8
:104A0000820F931F880F991F880F991F9C018D811A
:104A10009E81820F931F9A83898389819A81880F4F
:104A2000991F880F991F2E8D3F8D820F931FFC01B8
:104A300080819181A281B38180934A1290934B121D
:104A4000A0934C12B0934D128D85082E000C990B3B
:104A50009C0121503109C901880F991F820F931FB2
:104A6000880F991F880F991F9C018D819E81820F4D
:104A7000931F9F878E878E859F85880F991F880F2C
:104A8000991F2E8D3F8D820F931F29813A81220F0E
:104A9000331F220F331F4E8D5F8D240F351FFC01F6
:104AA00080819181A281B381F90180839183A28366
:104AB000B3838E859F85880F991F880F991F2E8D30
:104AC0003F8D280F391F80914A1290914B12A0916F
:104AD0004C12B0914D12F90180839183A283B3836C
:104AE0008D819E8101969E838D838D819E810C9701
:104AF0000CF481CF8F819885019798878F838F8160
:104B0000988599230CF05DCF00006F960FB6F8944E
:104B1000DEBF0FBECDBFDF91CF911F910F91FF90F0
:104B2000EF90DF90CF90BF90AF909F908F900895BF
:104B3000CF92DF92EF92FF92CF93DF93CDB7DEB7A4
:104B400060970FB6F894DEBF0FBECDBF69877A8736
:104B50008B879C872D873E874F87588B89859A85C1
:104B6000AB85BC85BC01CD010E941657882351F44A
:104B70008D859E85AF85B889BC01CD010E941657F1
:104B8000882369F08091DD169091DE16A091DF16E2
:104B9000B091E01689839A83AB83BC83ADC08985CD
:104BA0009A85AB85BC85BC01CD010E94E056882367
:104BB00009F458C08D859E85AF85B889BC01CD01AB
:104BC0000E94E056882309F44DC020E030E0A9019E
:104BD00069857A858B859C850E94CD5B18162CF49F
:104BE00081E090E09E838D8304C08FEF9FEF9E83D2
:104BF0008D8320E030E0A9016D857E858F859889C1
:104C00000E94CD5B18162CF481E090E098878F838A
:104C100004C08FEF9FEF98878F838F819885092E2F
:104C2000000CAA0BBB0BBC01CD010E946C5A6B019E
:104C30007C018D819E81092E000CAA0BBB0BBC014F
:104C4000CD010E946C5ADC01CB01A7019601BC0189
:104C5000CD010E946959DC01CB0189839A83AB8322
:104C6000BC834AC020E030E0A9016D857E858F8538
:104C700098890E94CF59882369F520E030E0A90186
:104C800069857A858B859C850E94CD5B18164CF4CE
:104C90008BED9FE0A9ECBFE389839A83AB83BC8350
:104CA0002BC020E030E0A90169857A858B859C8541
:104CB0000E94CF5988234CF48BED9FE0A9ECBFEB09
:104CC00089839A83AB83BC8317C019821A821B82A3
:104CD0001C8212C02D853E854F85588989859A850D
:104CE000AB85BC85BC01CD010E946959DC01CB01BB
:104CF00089839A83AB83BC8389819A81AB81BC8190
:104D0000BC01CD0160960FB6F894DEBF0FBECDBFDB
:104D1000DF91CF91FF90EF90DF90CF9008958F9229
:104D20009F92AF92BF92CF92DF92EF92FF920F933A
:104D30001F93CF93DF93CDB7DEB767970FB6F89485
:104D4000DEBF0FBECDBF9D878C877F876E87598B57
:104D5000488B3B8B2A8B1D8B0C8BFF8AEE8A8C85B4
:104D60009D859C012C583C4F4E895F898889998983
:104D7000B9010E94880F8C859D8587599C4FFC0145
:104D80008081882341F18C859D8587599C4FFC014A
:104D900010822A893B898E859F8546EB50E1B901B7
:104DA0000E9400108C859D85BC016B5A7C4F8C85C0
:104DB0009D859C012F5A3C4F8C859D85AC01435BA2
:104DC0005C4F8C859D85875B9C4F8B01BC0186EB7E
:104DD00090E10E9491141E821D8225C02C853D8584
:104DE0008D819E8183529F4F880F991F880F991F35
:104DF000820F931FFC0180819181A281B3812D815B
:104E00003E812A503D4F220F331F220F331F2A525B
:104E10003A4FF90180839183A283B3838D819E8170
:104E200001969E838D838D819E810397BCF28C8534
:104E30009D858B5A9C4FFC0180819181A281B38119
:104E40002C853D852F5A3C4FF901A080B180C2804E
:104E5000D3802C853D85235B3C4FF901E080F180B8
:104E6000028113812C853D85275B3C4FF901208110
:104E700031814281538168897989EC85FD850F2EC6
:104E8000FEE38F2EF2E19F2EF02D9F920F2EFEE378
:104E90008F2EF2E19F2EF02D982C9F920F2EFAE389
:104EA0008F2EF2E19F2EF02D9F920F2EFAE38F2E80
:104EB000F2E19F2EF02D982C9F920F2EF6E38F2E6D
:104EC000F2E19F2EF02D9F920F2EF6E38F2EF2E14E
:104ED0009F2EF02D982C9F920F2EF2E38F2EF2E151
:104EE0009F2EF02D9F920F2EF2E38F2EF2E19F2E38
:104EF000F02D982C9F929B2E9F929A2E9F92992EE6
:104F00009F928F93450156016701780189019A01AB
:104F10004EEA51E1CF010E948D1A8DB79EB70C96D3
:104F20000FB6F894DEBF0FBECDBF80913E129091B8
:104F30003F12A0914012B09141122C853D852B5912
:104F40003C4FF90180839183A283B38380913A120D
:104F500090913B12A0913C12B0913D122C853D8561
:104F60002F593C4FF90180839183A283B3838091B1
:104F7000361290913712A0913812B09139122C85C7
:104F80003D85235A3C4FF90180839183A283B383EB
:104F90008091321290913312A0913412B091351257
:104FA0002C853D85275A3C4FF90180839183A2834C
:104FB000B3838C859D858B599C4FFC01A080B1806B
:104FC000C280D3808C859D858F599C4FFC01E080E9
:104FD000F180028113818C859D85835A9C4FFC0151
:104FE00020813181428153818C859D85875A9C4FD8
:104FF000FC0180819181A281B3810F2EF6EB8F2E6F
:10500000F0E19F2EF02DBC01CD010E94571D1E82A4
:105010001D820CC18C859D858B589F4FFC01808122
:105020009181A281B3814C855D852D813E812D5179
:105030003F4F220F331F220F331F240F351FF9015B
:105040002081318142815381BC01CD010E94D85B16
:10505000DC01CB014C855D852D813E8120523F4F87
:10506000220F331F220F331F240F351FF9018083B6
:105070009183A283B3838D819E81069688549D4F30
:10508000880F991F880F991F8A529A4FFC018081BF
:105090009181A281B3818093321290933312A093B5
:1050A0003412B09335128D819E81880F991F880F1D
:1050B000991F2E853F85820F931FFC01808191816E
:1050C000A281B3814C855D852D813E8120523F4F69
:1050D000220F331F220F331F240F351FF9012081A8
:1050E000318142815381BC01CD010E94F658DC011F
:1050F000CB017C018D018091321290913312A091ED
:105100003412B09135129C01AD01C801B7010E9463
:10511000F558DC01CB012D813E812A503D4F220FF5
:10512000331F220F331F2A523A4FF9018083918394
:10513000A283B3838091321290913312A0913412E2
:10514000B09135122C853D8524543C4FF9012081C6
:10515000318142815381BC01CD010E94D85BDC01C9
:10516000CB016C017D018D819E81039688549D4FFA
:10517000880F991F880F991F8A529A4FFC018081CE
:105180009181A281B3812C853D8528543C4FF90142
:105190002081318142815381BC01CD010E94D85BC5
:1051A000DC01CB014C015D018D819E8188549D4FB6
:1051B000880F991F880F991F8A529A4FFC0180818E
:1051C0009181A281B3812C853D852C543C4FF901FE
:1051D0002081318142815381BC01CD010E94D85B85
:1051E000DC01CB019C01AD01C501B4010E94F65860
:1051F000DC01CB019C01AD01C701B6010E94F6584C
:10520000DC01CB012D813E8127503D4F220F331F02
:10521000220F331F2A523A4FF90180839183A283D0
:10522000B3838D819E8101969E838D838D819E8126
:1052300003970CF4EFCE44E250E060E070E08AEDBA
:1052400090E10E947D718091D6109091D710A0912D
:10525000D810B091D9108093E6109093E710A093E6
:10526000E810B093E9108091D2109091D310A091E2
:10527000D410B091D510B0588093F2109093F310E1
:10528000A093F410B093F5108091CE109091CF10B0
:10529000A091D010B091D1108093F6109093F71098
:1052A000A093F810B093F9101E821D82ADC02D811D
:1052B0003E81C901880F991FAC01420F531F2D81F8
:1052C0003E81C901880F991F280F391FCA018F53CA
:1052D0009D4F880F991F880F991F8A529A4FFC0182
:1052E00080819181A281B38126533D4F220F331FCC
:1052F000220F331F2A523A4FF90180839183A283F0
:10530000B3832D813E81C901880F991F820F931F9E
:1053100001969C838B838B819C818F539D4F880F3B
:10532000991F880F991F8A529A4FFC0180819181A1
:10533000A281B3812D813E812D5F3F4F2F533D4F81
:10534000220F331F220F331F2A523A4FF9012081B7
:10535000318142815381BC01CD010E94F558DC01AD
:10536000CB012B813C8126533D4F220F331F220F4F
:10537000331F2A523A4FF90180839183A283B3836A
:105380002D813E81C901880F991F820F931F0296BC
:105390009C838B838B819C818F539D4F880F991F9A
:1053A000880F991F8A529A4FFC0180819181A281B6
:1053B000B3812D813E812A5F3F4F2F533D4F220FF6
:1053C000331F220F331F2A523A4FF90120813181B6
:1053D00042815381BC01CD010E94F558DC01CB0113
:1053E0002B813C8126533D4F220F331F220F331F49
:1053F0002A523A4FF90180839183A283B3838D812E
:105400009E8101969E838D838D819E8103970CF4EE
:105410004ECF1E821D8232C08D819E8186539D4F4C
:10542000880F991F880F991F8A529A4FFC0180811B
:105430009181A281B3812D813E812F533D4F220F57
:10544000331F220F331F2A523A4FF9018083918371
:10545000A283B3838D819E8188549D4F880F991FAD
:10546000880F991F8A529A4FFC0110821182128272
:1054700013828D819E8101969E838D838D819E8175
:10548000099754F28091C2119091C311A091C41157
:10549000B091C5118093C2109093C310A093C41013
:1054A000B093C5108091BE119091BF11A091C01111
:1054B000B091C111B0588093CE109093CF10A093AB
:1054C000D010B093D1108091BA119091BB11A091DE
:1054D000BC11B091BD118093D2109093D310A093C2
:1054E000D410B093D5101E821D82ADC02D813E8197
:1054F000C901880F991FAC01420F531F2D813E81B6
:10550000C901880F991F280F391FCA0188549D4F60
:10551000880F991F880F991F8A529A4FFC0180812A
:105520009181A281B38126533D4F220F331F220F59
:10553000331F2A523A4FF90180839183A283B383A8
:105540002D813E81C901880F991F820F931F0196FB
:105550009C838B838B819C8188549D4F880F991FDE
:10556000880F991F8A529A4FFC0180819181A281F4
:10557000B3812D813E812D5F3F4F28543D4F220F37
:10558000331F220F331F2A523A4FF90120813181F4
:1055900042815381BC01CD010E94F558DC01CB0151
:1055A0002B813C8126533D4F220F331F220F331F87
:1055B0002A523A4FF90180839183A283B3832D81CC
:1055C0003E81C901880F991F820F931F02969C8309
:1055D0008B838B819C8188549D4F880F991F880FE6
:1055E000991F8A529A4FFC0180819181A281B381D7
:1055F0002D813E812A5F3F4F28543D4F220F331F9C
:10560000220F331F2A523A4FF90120813181428102
:105610005381BC01CD010E94F558DC01CB012B81E7
:105620003C8126533D4F220F331F220F331F2A5236
:105630003A4FF90180839183A283B3838D819E8148
:1056400001969E838D838D819E8103970CF44ECFAE
:1056500044E250E06EEF70E186EB90E10E947471DD
:105660001E821D82D6C32D813E81C901880F991FDC
:10567000820F931F88549D4F880F991F880F991F81
:105680008A529A4FFC0180819181A281B3818093DB
:10569000321290933312A0933412B09335122D81AD
:1056A0003E81C901880F991F820F931F8F539D4F11
:1056B000880F991F880F991F8A529A4FFC01808189
:1056C0009181A281B3818093361290933712A09377
:1056D0003812B09339122D813E81C901880F991F6C
:1056E000820F931F880F991F9C0180913612909111
:1056F0003712A0913812B0913912205E3E4F220F1E
:10570000331F220F331F2A523A4FF90180839183AE
:10571000A283B3838D819E819C012D5F3F4FC90180
:10572000880F991F820F931F880F991F9987888769
:105730008091361290913712A0913812B09139129F
:10574000B0582C853D8520593C4FF901208131818D
:1057500042815381BC01CD010E94D85BDC01CB01A9
:1057600028853985205E3E4F220F331F220F331FBD
:105770002A523A4FF90180839183A283B3838D81AA
:105780009E819C012A5F3F4FC901880F991F820F9C
:10579000931F880F991F9A8389832D813E81C901A8
:1057A000880F991F820F931F8D529C4FFC0180819F
:1057B000082E000C990BAA0BBB0BBC01CD010E945B
:1057C0006C5ADC01CB0129813A81205E3E4F220FC9
:1057D000331F220F331F2A523A4FF90180839183DE
:1057E000A283B3838D819E819C01275F3F4FC901B6
:1057F000880F991F820F931F880F991F9B878A8795
:105800008A859B85805E9E4F880F991F880F991F00
:105810008A529A4FFC0110821182128213822D81CA
:105820003E81C901880F991F820F931F880F991F0E
:105830009C012D5F3F4F8091321290913312A091C5
:105840003412B0913512205E3E4F220F331F220FCB
:10585000331F2A523A4FF90180839183A283B38385
:105860008091321290913312A0913412B09135127E
:10587000B0582C853D8520593C4FF901208131815C
:1058800042815381688579858B010D5F1F4FBC0173
:10589000CD010E94D85BDC01CB019801205E3E4F18
:1058A000220F331F220F331F2A523A4FF9018083F0
:1058B0009183A283B38389819A810396805E9E4FF0
:1058C000880F991F880F991F8A529A4FFC011082E6
:1058D0001182128213822D813E81C901880F991F86
:1058E000820F931F84529C4FFC0120818A859B85E7
:1058F0008C010D5F1F4F822F220F990BAA0BBB0B40
:10590000BC01CD010E946C5ADC01CB019801205EE4
:105910003E4F220F331F220F331F2A523A4FF901F5
:1059200080839183A283B3832D813E81C901880F37
:10593000991F820F931F01969C838B838B819C817F
:1059400088549D4F880F991F880F991F8A529A4F2C
:10595000FC0180819181A281B38180933212909366
:105960003312A0933412B09335128B819C818F53E4
:105970009D4F880F991F880F991F8A529A4FFC01DB
:1059800080819181A281B3818093361290933712E6
:10599000A0933812B09339122D813E81C901880F2E
:1059A000991F820F931F880F991F9C012F5F3F4FF4
:1059B0008091361290913712A0913812B09139121D
:1059C000205E3E4F220F331F220F331F2A523A4FC1
:1059D000F90180839183A283B383809136129091E1
:1059E0003712A0913812B0913912B0582C853D85EC
:1059F00020593C4FF90120813181428153816885D2
:105A000079858B010F5F1F4FBC01CD010E94D85BD0
:105A1000DC01CB019801205E3E4F220F331F220F85
:105A2000331F2A523A4FF90180839183A283B383B3
:105A30008B819C818D529C4FFC01208189819A81B0
:105A40008C010F5F1F4F822F220F990BAA0BBB0BEC
:105A5000BC01CD010E946C5ADC01CB019801205E93
:105A60003E4F220F331F220F331F2A523A4FF901A4
:105A700080839183A283B3838A859B850196805E10
:105A80009E4F880F991F880F991F8A529A4FFC01C9
:105A900010821182128213822D813E81C901880FEA
:105AA000991F820F931F880F991F9C012C5F3F4FF6
:105AB0008091321290913312A0913412B09135122C
:105AC000205E3E4F220F331F220F331F2A523A4FC0
:105AD000F90180839183A283B383809132129091E4
